:100000000C9434000C9423010C9451000C94510076
:100010000C9451000C9451000C9451000C9451001C
:100020000C9451000C9451000C9451000C9451000C
:100030000C9451000C9451000C9451000C945100FC
:100040000C9451000C9451000C9451000C945100EC
:100050000C9451000C9451000C9451000C945100DC
:100060000C9451000C94510011241FBECFEFD8E026
:10007000DEBFCDBF11E0A0E0B1E0E4E9F3E002C0F3
:1000800005900D92A231B107D9F721E0A2E1B1E0CC
:1000900001C01D92A831B207E1F70E9453000C94F1
:1000A000C8010C940000CF93DF93CDB7DEB729973A
:1000B0000FB6F894DEBF0FBECDBF15B818B81BB889
:1000C00084B1876084B987B18F6087B98AB1806E47
:1000D0008AB90E94320189E0E1E0F1E0DE01119687
:1000E00001900D928A95E1F749E0BE016F5F7F4F65
:1000F00088E60E945101E89A8091690083608093AC
:100100006900789401E010E0809112018823D1F019
:10011000F8948BB18F718BB941E060E070E088E6B4
:100120000E94510144E063E171E088E60E9493017E
:100130008091170185FF03C08F7E80931701109275
:100140001201789485B1887F85B988B1807F88B99C
:100150008BB18F718BB982E48A95F1F700C0E09181
:100160000001AE2FB0E0AD5EBE4F8C9180FD299AAC
:10017000F0E0ED5EFE4F808181FD409AE09100014C
:10018000AE2FB0E0AD5EBE4F8C9182FD429AF0E0A2
:10019000ED5EFE4F808183FD439AE0910001AE2F1A
:1001A000B0E0AD5EBE4F8C9184FD289AF0E0ED5E2C
:1001B000FE4F808185FD2A9AE0910001F0E0ED5E1E
:1001C000FE4F808186FD419A86E090E04BB1E09140
:1001D0000001F0E0EE0FFF1FE65FFE4F9801008088
:1001E00002C0220F331F0A94E2F7422B4BB9E3EF10
:1001F000F1E03197F1F700C000004BB1E091000150
:10020000F0E0EE0FFF1FE65FFE4F9801008002C096
:10021000220F331F0A94E2F7209524232BB9EFEC29
:10022000F7E03197F1F700C00000019779F680916F
:1002300000018F5F80930001843008F465CF81E076
:100240008093000161CF1F920F920FB60F9211247D
:100250008F9381E0809312018F910F900FBE0F90CA
:100260001F90189582E08093B9008AE08093B800CF
:1002700084E08093BC00089584EA8093BC00809160
:10028000BC0087FFFCCF0895880F61118F5F8093BA
:10029000BB0084E88093BC008091BC0087FFFCCF4A
:1002A00008950F931F93CF93DF9300D0CDB7DEB7A0
:1002B0008B014A8389830E943C0160E089810E940E
:1002C0004401F8014A8150E024E809C081918093FB
:1002D000BB002093BC008091BC0087FFFCCFCF0106
:1002E000801B910B8417950788F384E98093BC00E9
:1002F0000F900F90DF91CF911F910F91089584EC93
:100300008093BC008091BC0087FFFCCF8091BB0034
:10031000089584E88093BC008091BC0087FFFCCFE7
:100320008091BB000895CF92DF92EF92FF920F93DE
:100330001F93CF93DF931F92CDB7DEB76B01E42EEF
:1003400089830E943C0161E089810E944401860109
:10035000F12C05C00E947F01F80181938F01C80133
:100360008C199D098E159F05A8F3EC0CFD1C0E94AD
:100370008901F701808384E98093BC000F90DF91AD
:10038000CF911F910F91FF90EF90DF90CF90089544
:04039000F894FFCF0F
:1003940001000000160030061310000005000600DE
:0203A400070050
:00000001FF
