S01100004243445F436C6F636B2E73726563FF
S11300000C9434000C94E9010C9451000C945100AC
S11300100C9451000C9451000C9451000C94510018
S11300200C9451000C9451000C9451000C94510008
S11300300C9451000C9451000C9451000C945100F8
S11300400C9451000C9451000C9451000C945100E8
S11300500C9451000C9451000C9451000C945100D8
S11300600C9451000C94510011241FBECFEFD8E022
S1130070DEBFCDBF11E0A0E0B1E0E0E0F5E002C0FA
S113008005900D92AA30B107D9F721E0AAE0B1E0BA
S113009001C01D92A531B207E1F70E948F010C94B3
S11300A07E020C94000020910B0130910C01A901F7
S11300B041505109559547954F5F20FD02C09FE07F
S11300C001C090EF21153105C9F0609111017091C3
S11300D0120177276F38710544F4E42FF0E0E35FF1
S11300E0FE4F50815923508309C0E42FF0E0E35FB1
S11300F0FE4F608150910001562B5083882309F4F0
S11301005DC0883069F52115310509F44EC0E42F2E
S1130110F0E0E35FFE4F8081982380910001982BEB
S113012090832F5F3F4F30930C0120930B0120FFEE
S113013004C081E08093000103C080E1809300014A
S113014027303105DCF110920C0110920B01109252
S11301500D0144E06DE071E088E60E9456020895C6
S1130160803161F580910B0190910C0180FD02C0FA
S113017020E101C021E08230910539F084309105FD
S113018031F0069731F099E005C090E503C090E5A1
S113019001C090E280910001820F981718F08093BB
S11301A00001089510920001089581E090E0909379
S11301B00C0180930B0121E030E0BBCF089589B19D
S11301C083FF1AC084FF1AC021C02091110130910D
S11301D012013093140120931301409113015091A3
S11301E014014B5F5F4F20911101309112014217AE
S11301F0530789F080E0089588E001C080E12091F0
S1130200130130911401232B01F3E7CF1092140151
S11302101092130180E0089585B1887F85B988B173
S1130220807F88B98BB18F718BB9E0910101F0E0C7
S1130230E35FFE4F808180FD299AE0910101F0E0A7
S1130240E35FFE4F808181FD409AE0910101F0E07F
S1130250E35FFE4F808182FD429AE0910101F0E06C
S1130260E35FFE4F808183FD439AE0910101F0E05A
S1130270E35FFE4F808184FD289AE0910101F0E064
S1130280E35FFE4F808185FD2A9AE0910101F0E051
S1130290E35FFE4F808186FF3DC0419A3BC06BB156
S11302A0E0910101F0E0EE0FFF1FEE5FFE4FA901A8
S11302B0008002C0440F551F0A94E2F7462B4BB945
S11302C041E24A95F1F700006BB1E0910101F0E0E1
S11302D0EE0FFF1FEE5FFE4FA901008002C0440F26
S11302E0551F0A94E2F7409546234BB9EAEAF9E030
S11302F03197F1F700C00000019789F68091010160
S11303008F5F837019F080930101089581E08093D9
S11303100101089586E090E021E030E0C0CFCF9362
S1130320DF9300D0CDB7DEB715B818B81BB884B1C9
S1130330876084B987B18F6087B98AB1806E8AB9C2
S11303400E94F80187E0898380E18A8342E0BE014C
S11303506F5F7F4F88E60E945602E89AE9E6F0E074
S1130360808183608083789401E111E080910A01A7
S11303708823F9F080910B0190910C01892BC9F429
S1130380F8948BB18F718BB941E060E070E088E63E
S11303900E94560244E06DE071E088E60E94330258
S11303A0F801808185FF02C08F7E808310920A014C
S11303B078940E940C018091110190911201019690
S11303C090931201809311010E94DF000E94530058
S11303D0CDCF1F920F920FB60F9211248F9381E00D
S11303E080930A018F910F900FBE0F901F90189564
S11303F082E08093B9008AE08093B80084E080931F
S1130400BC00089584EA8093BC00ECEBF0E08081AA
S11304108823ECF70895880F61118F5F8093BB00E8
S113042084E88093BC00ECEBF0E080818823ECF757
S1130430089584EC8093BC00ECEBF0E08081882389
S1130440ECF78091BB00089584E88093BC00ECEB4A
S1130450F0E080818823ECF78091BB00089584E963
S11304608093BC0008950F931F93CF93DF93182FAD
S1130470EB01042F0E94020261E0812F0E940B0213
S113048010E00115110541F00C0F1D1F0E94190207
S11304908993C017D107D1F70E94240288830E9450
S11304A02F02DF91CF911F910F9108950F931F9306
S11304B0CF93DF93082FEB01142F0E94020260E018
S11304C0802F0E940B02812F90E0009781F08C0F07
S11304D09D1FABEBB0E0ECEBF0E034E829912C93FA
S11304E0308320812223ECF7C817D907B9F70E947B
S11304F02F02DF91CF911F910F910895F894FFCFB0
S10D050001010000050006000700D9
S9030000FC
